{
  "contractName": "StrorageFactory",
  "abi": [
    {
      "inputs": [
        {
          "internalType": "uint256",
          "name": "",
          "type": "uint256"
        }
      ],
      "name": "simpleStorageArray",
      "outputs": [
        {
          "internalType": "contract SimpleStorage",
          "name": "",
          "type": "address"
        }
      ],
      "stateMutability": "view",
      "type": "function"
    },
    {
      "inputs": [],
      "name": "createSimpleStorageContract",
      "outputs": [],
      "stateMutability": "nonpayable",
      "type": "function"
    }
  ],
  "bytecode": "0x608060405234801561001057600080fd5b506107c9806100206000396000f3fe608060405234801561001057600080fd5b5060043610610053576000357c0100000000000000000000000000000000000000000000000000000000900480631dda65411461005857806364591bf114610062575b600080fd5b6100606100d0565b005b61008e6004803603602081101561007857600080fd5b8101908080359060200190929190505050610163565b604051808273ffffffffffffffffffffffffffffffffffffffff1673ffffffffffffffffffffffffffffffffffffffff16815260200191505060405180910390f35b60006040516100de9061019f565b604051809103906000f0801580156100fa573d6000803e3d6000fd5b5090506000819080600181540180825580915050600190039060005260206000200160009091909190916101000a81548173ffffffffffffffffffffffffffffffffffffffff021916908373ffffffffffffffffffffffffffffffffffffffff16021790555050565b6000818154811061017057fe5b906000526020600020016000915054906101000a900473ffffffffffffffffffffffffffffffffffffffff1681565b6105e7806101ad8339019056fe608060405234801561001057600080fd5b506105c7806100206000396000f3fe608060405234801561001057600080fd5b5060043610610074576000357c0100000000000000000000000000000000000000000000000000000000900480632e64cec1146100795780636057361d146100975780636f760f41146100c55780638bab8dd51461018a5780639e7a13ad14610259575b600080fd5b610081610307565b6040518082815260200191505060405180910390f35b6100c3600480360360208110156100ad57600080fd5b8101908080359060200190929190505050610310565b005b610188600480360360408110156100db57600080fd5b81019080803590602001906401000000008111156100f857600080fd5b82018360208201111561010a57600080fd5b8035906020019184600183028401116401000000008311171561012c57600080fd5b91908080601f016020809104026020016040519081016040528093929190818152602001838380828437600081840152601f19601f8201169050808301925050505050505091929192908035906020019092919050505061031a565b005b610243600480360360208110156101a057600080fd5b81019080803590602001906401000000008111156101bd57600080fd5b8201836020820111156101cf57600080fd5b803590602001918460018302840111640100000000831117156101f157600080fd5b91908080601f016020809104026020016040519081016040528093929190818152602001838380828437600081840152601f19601f8201169050808301925050505050505091929192905050506103f5565b6040518082815260200191505060405180910390f35b6102856004803603602081101561026f57600080fd5b8101908080359060200190929190505050610423565b6040518083815260200180602001828103825283818151815260200191508051906020019080838360005b838110156102cb5780820151818401526020810190506102b0565b50505050905090810190601f1680156102f85780820380516001836020036101000a031916815260200191505b50935050505060405180910390f35b60008054905090565b8060008190555050565b600260405180604001604052808381526020018481525090806001815401808255809150506001900390600052602060002090600202016000909190919091506000820151816000015560208201518160010190805190602001906103809291906104ec565b505050806003836040518082805190602001908083835b602083106103ba5780518252602082019150602081019050602083039250610397565b6001836020036101000a0380198251168184511680821785525050505050509050019150509081526020016040518091039020819055505050565b6003818051602081018201805184825260208301602085012081835280955050505050506000915090505481565b6002818154811061043057fe5b9060005260206000209060020201600091509050806000015490806001018054600181600116156101000203166002900480601f0160208091040260200160405190810160405280929190818152602001828054600181600116156101000203166002900480156104e25780601f106104b7576101008083540402835291602001916104e2565b820191906000526020600020905b8154815290600101906020018083116104c557829003601f168201915b5050505050905082565b828054600181600116156101000203166002900490600052602060002090601f016020900481019282601f1061052d57805160ff191683800117855561055b565b8280016001018555821561055b579182015b8281111561055a57825182559160200191906001019061053f565b5b509050610568919061056c565b5090565b61058e91905b8082111561058a576000816000905550600101610572565b5090565b9056fea264697066735822122069e159780d7bc0ab7fdfa0a24063b6c5b80b70441d2933308eca58cd6cb3e55f64736f6c63430006000033a26469706673582212200e212645f7d526d7a5e77006d402f4c3ea11f864a35230350dc51be1051abd4564736f6c63430006000033",
  "source": "// SPDX-License-Identifier: MIT\n\npragma solidity ^0.6.0;\n\nimport \"./SimpleStorage.sol\";\n\ncontract StrorageFactory {\n    SimpleStorage[] public simpleStorageArray;\n\n    function createSimpleStorageContract() public {\n        SimpleStorage simpleStorage = new SimpleStorage();\n        simpleStorageArray.push(simpleStorage);\n    }\n}\n",
  "sourcePath": "/Users/behnam/Blockchain/scFactory/contracts/StorageFactory.sol",
  "compiler": {
    "name": "solc",
    "version": "0.6.0+commit.26b70077.Emscripten.clang"
  },
  "schemaVersion": "3.4.3",
  "updatedAt": "2021-10-21T09:41:25.126Z",
  "devdoc": {
    "methods": {}
  },
  "userdoc": {
    "methods": {}
  }
}